:100000000C9462000C948A000C948A000C948A0070
:100010000C948A000C948A000C948A000C948A0038
:100020000C948A000C948A000C948A000C948A0028
:100030000C948A000C948A000C948A000C948A0018
:100040000C943C010C948A000C9432040C946404CB
:100050000C948A000C948A000C948A000C948A00F8
:100060000C948A000C948A00000000080002010031
:100070000003040700000000000000000102040863
:100080001020408001020408102001020408102002
:10009000040404040404040402020202020203032E
:1000A00003030303000000002300260029000000D2
:1000B0000000250028002B0000000000240027007D
:1000C0002A00940411241FBECFEFD8E0DEBFCDBFBD
:1000D00011E0A0E0B1E0EAE2FCE002C005900D9280
:1000E000AA32B107D9F721E0AAE2B1E001C01D921E
:1000F000A03DB207E1F710E0C4ECD0E004C02297C5
:10010000FE010E940F06C23CD107C9F70E94BC0540
:100110000C9413060C940000CF92DF92EF92FF92A2
:100120000F931F93E82FF92F05C0015011092109E2
:10013000310961F1908196239417B9F305C00150FC
:1001400011092109310911F1908196239413F7CFF8
:10015000C12CD12CE12CF12C0AC08FEFC81AD80A7F
:10016000E80AF80A0C151D052E053F0579F0808177
:100170008623841791F36C2D7D2D8E2D9F2D1F913D
:100180000F91FF90EF90DF90CF90089560E070E0C6
:1001900080E090E01F910F91FF90EF90DF90CF9063
:1001A000089526E040E855E260E070E083E391E0E6
:1001B0000C94D003CF92DF92EF92FF9261E082E045
:1001C0000E94520260E082E00E948B0282E090E096
:1001D0000E94E30161E082E00E948B028AE090E0ED
:1001E0000E94E30160E082E00E948B0260E084E014
:1001F0000E94520220E432E44FE050E061E084E0EB
:100200000E94C1026B017C0124E930E040E050E033
:100210000E94EE05BA01A9012AE030E083E391E0F3
:100220000E94710560E071E083E391E00E94150592
:10023000C701B6012AE330E040E050E00E94EE053D
:10024000BA01A9012AE030E083E391E00E94710540
:1002500065E071E083E391E00E94150583E391E09E
:100260000E941E0564E670E080E090E0FF90EF9051
:10027000DF90CF900C94A9011F920F920FB60F92AE
:1002800011242F933F938F939F93AF93BF938091AC
:100290002B0190912C01A0912D01B0912E01309154
:1002A0002A0123E0230F2D3720F40196A11DB11D53
:1002B00005C026E8230F0296A11DB11D20932A0137
:1002C00080932B0190932C01A0932D01B0932E01CC
:1002D00080912F0190913001A0913101B0913201B4
:1002E0000196A11DB11D80932F0190933001A09321
:1002F0003101B0933201BF91AF919F918F913F91A6
:100300002F910F900FBE0F901F9018953FB7F89444
:1003100080912F0190913001A0913101B091320173
:1003200026B5A89B05C02F3F19F00196A11DB11D50
:100330003FBF6627782F892F9A2F620F711D811D6D
:10034000911D42E0660F771F881F991F4A95D1F7CC
:1003500008958F929F92AF92BF92CF92DF92EF92C9
:10036000FF926B017C010E9486014B015C01C1146C
:10037000D104E104F104F1F00E94CB050E94860152
:10038000681979098A099B09683E734081059105BE
:1003900070F321E0C21AD108E108F10888EE880E56
:1003A00083E0981EA11CB11CC114D104E104F10426
:1003B00029F7DDCFFF90EF90DF90CF90BF90AF9007
:1003C0009F908F9008958230910538F0880F991F83
:1003D000880F991F05970197F1F70895789484B5D0
:1003E000826084BD84B5816084BD85B5826085BD31
:1003F00085B5816085BDEEE6F0E080818160808317
:10040000E1E8F0E0108280818260808380818160F9
:100410008083E0E8F0E0808181608083E1EBF0E0C0
:10042000808184608083E0EBF0E080818160808364
:10043000EAE7F0E08081846080838081826080834D
:100440008081816080838081806880831092C10078
:100450000895833081F028F4813099F08230A1F042
:1004600008958730A9F08830B9F08430D1F48091B4
:1004700080008F7D03C0809180008F778093800003
:10048000089584B58F7702C084B58F7D84BD0895AB
:100490008091B0008F7703C08091B0008F7D8093F2
:1004A000B0000895CF93DF9390E0FC01E458FF4F34
:1004B0002491FC01E057FF4F8491882349F190E09B
:1004C000880F991FFC01E854FF4FA591B491825504
:1004D0009F4FFC01C591D4919FB7611108C0F8945A
:1004E0008C91209582238C93888182230AC062306C
:1004F00051F4F8948C91322F309583238C9388811A
:10050000822B888304C0F8948C91822B8C939FBF9C
:10051000DF91CF9108950F931F93CF93DF931F9295
:10052000CDB7DEB7282F30E0F901E859FF4F8491AD
:10053000F901E458FF4F1491F901E057FF4F04917E
:100540000023C9F0882321F069830E942902698170
:10055000E02FF0E0EE0FFF1FE255FF4FA591B491A1
:100560009FB7F8948C91611103C01095812301C04D
:10057000812B8C939FBF0F90DF91CF911F910F9193
:1005800008950F931F93762F90E0FC01E458FF4FDE
:100590006491FC01E057FF4FE4917111762FF0E078
:1005A000EE0FFF1FEC55FF4F8591949189019A0141
:1005B0003F70472F0E948C006115710581059105E0
:1005C00031F06F5F7F4F8F4F9F4F9F7003C060E090
:1005D00070E0CB011F910F910895FC01818D228D58
:1005E00090E0805C9F4F821B91098F73992708953B
:1005F000FC01918D828D981731F0828DE80FF11DED
:10060000858D90E008958FEF9FEF0895FC01918D07
:10061000828D981761F0828DDF01A80FB11D5D9664
:100620008C91928D9F5F9F73928F90E008958FEFD2
:100630009FEF08958AE894E0892B49F080E090E0EC
:10064000892B29F00E948A0481110C9400000895DE
:10065000FC01848DDF01A80FB11DA35ABF4F2C915F
:10066000848D90E001968F739927848FA689B7892E
:100670002C93A089B1898C9180648C93938D848D07
:10068000981306C00288F389E02D80818F7D8083D6
:100690000895CF93DF93EC01888D8823C9F0EA8910
:1006A000FB89808185FD05C0A889B9898C9186FD6B
:1006B0000FC00FB607FCF5CF808185FFF2CFA88968
:1006C000B9898C9185FFEDCFCE010E942803E7CF39
:1006D000DF91CF910895CF92DF92FF920F931F93F6
:1006E000CF93DF931F92CDB7DEB76C0181E0D601C7
:1006F00058968C9358975B969C915B975C968C91DF
:100700005C97981307C05096ED91FC9151978081AA
:1007100085FD2EC0F601038D10E00F5F1F4F0F7394
:100720001127F02EF601848DF81211C00FB607FCC8
:10073000F9CFD6015096ED91FC915197808185FFBC
:10074000F1CFC60169830E9428036981EBCF838DB5
:10075000E80FF11DE35AFF4F6083D6015B960C93BF
:100760005B975296ED91FC915397808180620CC00B
:10077000D6015696ED91FC91579760835096ED9176
:10078000FC91519780818064808381E090E00F909C
:10079000DF91CF911F910F91FF90DF90CF9008953F
:1007A000BF92CF92DF92EF92FF92CF93DF93EC0153
:1007B0006A017B01B22EE889F98982E080834115C4
:1007C00081EE580761057105A1F060E079E08DE3E5
:1007D00090E0A70196010E94CC0521503109410902
:1007E00051095695479537952795211580E138078A
:1007F00098F0E889F989108260E874E88EE190E069
:10080000A70196010E94CC052150310941095109E7
:100810005695479537952795EC85FD853083EE8570
:10082000FF852083188EEC89FD89B082EA89FB89D7
:10083000808180618083EA89FB89808188608083F0
:10084000EA89FB89808180688083EA89FB898081CD
:100850008F7D8083DF91CF91FF90EF90DF90CF90DD
:10086000BF9008951F920F920FB60F9211242F93ED
:100870008F939F93EF93FF93E0914301F091440195
:100880008081E0914901F0914A0182FD12C090817E
:1008900080914C018F5F8F7320914D01821751F031
:1008A000E0914C01F0E0ED5CFE4F958F80934C01A0
:1008B00001C08081FF91EF919F918F912F910F90B7
:1008C0000FBE0F901F9018951F920F920FB60F92A8
:1008D00011242F933F934F935F936F937F938F9345
:1008E0009F93AF93BF93EF93FF9383E391E00E94B5
:1008F0002803FF91EF91BF91AF919F918F917F91CD
:100900006F915F914F913F912F910F900FBE0F907C
:100910001F90189583E391E00E94ED0221E0892B5E
:1009200009F420E0822F08951092360110923501CB
:1009300088EE93E0A0E0B0E0809337019093380117
:10094000A0933901B0933A018CE091E09093340187
:100950008093330185EC90E09093400180933F01B8
:1009600084EC90E0909342018093410180EC90E010
:10097000909344018093430181EC90E09093460171
:100980008093450182EC90E0909348018093470169
:1009900086EC90E090934A018093490110924C01BB
:1009A00010924D0110924E0110924F010895CF9276
:1009B000DF92EF92FF920F931F93CF93DF937C010F
:1009C0006A01EB0100E010E00C151D0571F0699162
:1009D000D701ED91FC910190F081E02DC7010995BF
:1009E000892B19F00F5F1F4FEFCFC801DF91CF9117
:1009F0001F910F91FF90EF90DF90CF9008956115B8
:100A0000710581F0DB010D900020E9F7AD01415047
:100A10005109461B570BDC01ED91FC910280F381DB
:100A2000E02D099480E090E008950C94FF04DC012F
:100A3000ED91FC910190F081E02D099468E171E065
:100A40000C94FF048F929F92AF92BF92DF92EF922D
:100A5000FF920F931F93CF93DF93CDB7DEB7A1978C
:100A60000FB6F894DEBF0FBECDBF7C01F42FD52E9C
:100A7000CB0119A2223008F42AE08E010F5D1F4F2E
:100A8000822E912CA12CB12C6F2F7D2DA5019401CC
:100A90000E94CC05F22FD32ECA01015011096A30F1
:100AA00014F4E0E301C0E7E3E60FD801EC93232B55
:100AB000242B252B49F7B801C7010E94FF04A196FA
:100AC0000FB6F894DEBF0FBECDBFDF91CF911F915F
:100AD0000F91FF90EF90DF90BF90AF909F908F901D
:100AE0000895CF92DF92EF92FF920F931F93CF93CF
:100AF000DF93EC016A017B012115310579F4E8816E
:100B0000F9810190F081E02D642FDF91CF911F9149
:100B10000F91FF90EF90DF90CF9009942A3031052C
:100B2000E9F477FF1AC06DE20E9417058C01442793
:100B30005527BA014C195D096E097F092AE0CE01DB
:100B40000E942205800F911FDF91CF911F910F917D
:100B5000FF90EF90DF90CF9008952AE0B701A601B3
:100B6000CE01DF91CF911F910F91FF90EF90DF9019
:100B7000CF900C94220508950E94EE010E94BB05BF
:100B80000E94D100CAE1D3E00E94DA002097E1F38D
:100B90000E941A03F9CF0895A1E21A2EAA1BBB1BCB
:100BA000FD010DC0AA1FBB1FEE1FFF1FA217B30739
:100BB000E407F50720F0A21BB30BE40BF50B661F4F
:100BC000771F881F991F1A9469F760957095809513
:100BD00090959B01AC01BD01CF010895052E97FBB7
:100BE0001EF400940E94050657FD07D00E94CC0514
:100BF00007FC03D04EF40C940506509540953095B3
:100C000021953F4F4F4F5F4F089590958095709578
:100C100061957F4F8F4F9F4F0895EE0FFF1F0590F7
:0A0C2000F491E02D0994F894FFCF41
:100C2A00696E2C2000636D00000000006B03D7047E
:100C3A00ED020603F80249030D0A006E616E0069AF
:0A0C4A006E66006F7666002E000053
:00000001FF
